:020000041000EA
:1000000000B5324B212058609868022188439860DF
:10001000D860186158612E4B002199600221596106
:100020000121F02299502B49196001219960352056
:1000300000F044F80222904214D00621196600F024
:1000400034F8196E01211966002018661A6600F04E
:100050002CF8196E196E196E052000F02FF8012189
:100060000842F9D1002199601B49196000215960AB
:100070001A491B48016001219960EB211966A021F2
:10008000196600F012F800219960164914480160C1
:100090000121996001BC002800D000471248134993
:1000A000086003C880F30888084703B5996A0420EC
:1000B0000142FBD001200142F8D103BD02B5186610
:1000C0001866FFF7F2FF186E186E02BD00000240BE
:1000D000000000180000070000035F00212200005C
:1000E000F4000018222000A00001001008ED00E03C
:1000F00000000000000000000000000074B24E7A12
:1001000000200420F7010010C3010010C5010010F9
:10011000C1010010C1010010C1010010C101001097
:10012000C1010010C1010010C1010010C701001081
:10013000C1010010C1010010C9010010CB01001065
:10014000CD010010CD010010CD010010CD01001037
:10015000CD010010CD010010CD010010CD01001027
:10016000CD010010CD010010CD010010CD01001017
:10017000CD010010CD010010CD010010CD01001007
:10018000CD010010CD010010CD010010CD010010F7
:10019000CD010010CD010010CD010010CD010010E7
:1001A000CD010010CD010010CD010010CD010010D7
:1001B000CD010010CD010010CD010010CD010010C7
:1001C00000BE00BE00BE00BE00BE00BE00F04BF888
:1001D000103800BEF2EB8871D85C0010F85C00109B
:1001E0003402001090A31AE700202149086006C8D5
:1001F00081F3088810471F48006800282FD10DA4FC
:100200000ECC002902D000F012F8F9E71A491B4A77
:10021000002000E001C19142FCD1194988471949E9
:1002200088471949884700BEFDE701C901C29A42C3
:10023000FBD37047F85C0010C00000208004002051
:10024000B86000100000042000000420B860001016
:1002500000100420001004200000000070470B482C
:1002600001F0C0FF0047EFF30580C0B27047000007
:1002700008ED00E0000000D0800400200C120020F7
:10028000211C0010E90200100D1D0010575600003F
:1002900006005250ABB36053845A0010060052500F
:1002A000861C0302945A0010060052505422A29D4C
:1002B000A05A001005005250DE65F468B8600010C6
:1002C000F8B5C046054B10B5002B03D004490548CE
:1002D00000E000BF10BC01BC0047C04600000000A9
:1002E0009C110020C8590010F0B58BB002F012FD2F
:1002F000152000F0A5F9D0238022844C1B06920320
:100300009A6200F009F98249200005F00BFA802278
:10031000F82352025B0202920393C02305000026D9
:100320001B03102202A906A80493059602F090FB75
:100330006B1CEA1C1203DB01134306A9102202A85E
:10034000079302F085FB9022A82312031B030621CA
:1003500015200492059300F05BF901231522012179
:100360002000009605F042FA2A0002AB012120008D
:1003700005F07EFA022223681343236002F09CFEFC
:100380000028FBD0614D02F0C9FCC0B2522800D158
:1003900083E050284AD04C28F5D102F0BFFCC7B208
:1003A00002F0BCFC30380600322002F02DFCB50013
:1003B000AD196D00FA246400462F0AD12FE0FF200A
:1003C000000400F00DF9013C280001F02DF8002C8C
:1003D0000DD002F0A3FCC0B23028F0D1002000F014
:1003E000FFF8013C280001F01FF8002CF1D1332068
:1003F00002F00AFCDEE7FF20000400F0F1F8300014
:1004000001F08CFF02000B000020424901F057FF71
:1004100001F09CFF013C01F007F8002CE7D002F04E
:100420007DFCC0B23028E6D10020E6E702F076FC81
:10043000040002F073FC30380600B7003220BF1908
:10044000E4B202F0E1FB7F00462C41D0FA246400C4
:1004500009E0FF20000400F0C3F8013C380000F080
:10046000E3FF002C0DD002F059FCC0B23028F0D1CF
:10047000002000F0B5F8013C380000F0D5FF002C5A
:10048000F1D1002000F0ACF8332002F0BDFB02F007
:1004900045FCC0B2522800D07BE7FA24203802F095
:1004A000B3FB64000BE0002000F09AF8302002F06B
:1004B000ABFB013C0A2000F0B7FF002CE1D06B6AD7
:1004C000002BF0D1FF20000400F08AF83120EEE785
:1004D000FA24640013E0FF20000400F081F83000EB
:1004E00001F01CFF02000B0000200A4901F0E7FEAA
:1004F00001F02CFF013C00F097FF002CC1D002F06E
:100500000DFCC0B23028E6D10020E6E70000205004
:10051000C85900100000244070B50B2086B000F0D0
:100520008FF8D02380221B0612015A6226495A6195
:10053000264805F0F7F8062105000C2000F068F8C1
:10054000012300210C222148009305F04FF980235C
:100550005B020293EB1CEA011B0313431C4A0520B8
:10056000134003931B4B05931B4B049301F04CFD6D
:1005700002F0EAF9194902F0CCF9061C02F00CFA73
:1005800084B20023002C0ED0200002F0DDF9011C03
:10059000301C02F0B8F98721C90502F0CEF902F04B
:1005A000FBF9C3B21B0224041C430294074C2A002B
:1005B00002AB0021200005F05BF901222368134300
:1005C000236006B070BDC046D8590010000020500E
:1005D000FFFFFF9F00300020000006400024F44A87
:1005E000FF220300FF211202000A104009041A0230
:1005F0000A401043FF22802113401843034A00029F
:10060000490253680B42FCD1106170470000205032
:10061000094A830094464022634410B51C68C00018
:100620006240C02414408022520113431C60034BDB
:100630009C466044416010BD04C001400040014040
:100640000123D0228340120693629361094A8300FA
:100650009446402263441968C0004A40C0211140BA
:100660008022520113431960034B9C4605236044CA
:100670004360704704C0014000400140EFF3108028
:1006800072B6034A1368002BFCD0BFF35F8F70472C
:100690002C0100D0BFF35F8F0022024B1A6080F361
:1006A000108870472C0100D070B5EFF3108C72B633
:1006B0000D4D2B68002BFCD0BFF35F8F0724CB08B8
:1006C000C618C05C01230C40A3401C000440034238
:1006D00007D103433370BFF35F8F2C608CF3108816
:1006E00070BD100001F014FB2C0100D0F8B5474696
:1006F000CE46884680B5EFF3108C72B6214D2C683B
:10070000002CFCD0BFF35F8F9A422CD8D408072767
:10071000055D061901241740BC402C421FD007215B
:100720000127894609E0D408055D06194C463900C1
:100730001440A1400C00294211D001329342F2D260
:1007400001204042BFF35F8F00220E4B1A608CF3F2
:10075000108800280FDBC0BCB946B046F8BD2C435A
:1007600010003470EEE7BFF35F8F00232B608CF333
:100770001088012040424346002BECD0089801F03D
:10078000C7FAC0462C0100D0024B18688007C00F82
:100790007047C04600C006400021044B044ABFF326
:1007A0005F8F02C39342FAD17047C046000100D068
:1007B000800100D0044A1078431CDBB2172B00D90B
:1007C000102313707047C0468803002000B5054B06
:1007D00083B00100009318221F230348FFF786FF10
:1007E00003B000BDE8590010F40C00200123834041
:1007F000002904D0034A1360034A13607047034A78
:100800001360FBE780E200E000E100E080E100E04F
:1008100001238340014A13607047C04600E200E0B4
:10082000084B10309B688000C358002B07D0064A45
:1008300000209B1A2F229A424041C0B270470020EC
:10084000FCE7C04600ED00E08C030020024B1030B6
:100850009B688000C058704700ED00E070B50D0047
:10086000EFF3108672B60F4A1368002BFCD0BFF36B
:100870005F8F0D4B10309B6884001B590B4A9342CD
:1008800003D09D4201D001F05BFA074B9B681D51DC
:10089000BFF35F8FBFF35F8F0022024B1A6086F3B6
:1008A000108870BD240100D000ED00E0CD010010E3
:1008B000F0B54E464546DE465746E0B583B00600E5
:1008C00000919046EFF3108B72B6624A1368002BCA
:1008D000FCD0BFF35F8F00255F4B5D579A46002D1C
:1008E00000DA9DE052466B005C4C5F19BF0001933B
:1008F000E31999469B7910361370594BB2009B68E7
:10090000924699580B1B2F2B34D9564B994200D045
:100910009DE0019B02379C46534B6544AD006353F9
:10092000524B6519043BE4191B1B514A1B055B0D17
:1009300013436B804F4B0121AB80FF23AB714346C8
:10094000EB71009BAB604B460B4319005246444B86
:100950009B689950BFF35F8FBFF35F8F00223D4BC1
:100960001A608BF3108803B0F0BCBB46B246A946B0
:10097000A046F0BD01200A008243D3794646BC461A
:1009800043452CD84E4613003B491B1B5B41594342
:10099000090DB1714146F1710099334BB16049467F
:1009A000E353324BBD1C6519043B5B1B1B05304DEB
:1009B0005B0D2B4304377380E419131F1B1B1B05AE
:1009C0005B0D2B43B3802D4B01431360BEE75800F2
:1009D000C01880002018C779B74227D90200062323
:1009E000D356002BF3DABD27101DB04684463F02D4
:1009F000484666460438801B00051D4E400D3043B6
:100A000095719080019A94466544AD006419A37174
:100A100043461A4AE371009B2260A780A36095E7D2
:100A200001F08EF9002553465D575BE76746101DC0
:100A3000844690880437400500156044E719C71BB9
:100A4000E0203F057F0D0002B0460743D0E701F0EC
:100A500077F95EE7240100D0061200208C03002005
:100A600000ED00E0CD01001000A1FFFFBC0300205D
:100A700000E0FFFF00BDFFFFAAAA00000148804779
:100A8000F0B5DE4657464E464546E0B50C0083B00D
:100A9000EFF3108A72B65A4A1368002BFCD0BFF3EA
:100AA0005F8F1022914681444A46564B96009B68C0
:100AB0009D59554B98469D4205D0A54216D0534F9F
:100AC000EB1B2F2B14D94F4B9B689D51BFF35F8FAE
:100AD000BFF35F8F00224A4B1A608AF3108803B07D
:100AE000F0BCBB46B246A946A046F0BD1D00EAE7F1
:100AF000012383409B465A46454B1B681A4000928F
:100B00005A46444B1A60BFF35F8FFFF7ACFB01906E
:100B1000002803D0814501D001F012F901232A00F9
:100B200006219A43936851569C420AD15FE04B00DC
:100B30005B189B00FB189968A14211D006211A008E
:100B400059560029F3DA009B002B05D05A46324B48
:100B50001A602F4B1A60B6E75A462E4B1A60B2E75E
:100B600006215956002921DB4A00501880003C1804
:100B70008046A0689860E079D87106202056987168
:100B8000002824DBA488F81A6405241544440019BD
:100B9000E0240005400D24022043988052181F4B8A
:100BA0009200BF181A781970BA71CCE70199002920
:100BB00010D1FF3191711A49918018490A789A71C0
:100BC000184ADB1B5B415A43120D0A70BBE7BD207C
:100BD0000002E2E7144A1549D21A083A5002400DC1
:100BE00001439980124952080A43DA80ABE71300A7
:100BF0000029B9DA019A002AECD14546DDE7C04662
:100C0000240100D000ED00E0CD0100108C03002095
:100C100000E100E080E100E080E200E00612002058
:100C200000BDFFFFAAAA0000C603002000F0FFFFDE
:100C300000F8FFFFF8B5012504000543FFF713FB9B
:100C4000EFF3108C72B6214A1368002BFCD0BFF36F
:100C50005F8F1F4E2100B7681E4A1F4B891A4941FA
:100C60004B431B0D59B28300F858A8421CD00623F1
:100C7000D3568B421CD01223D3568B4222D01E2334
:100C8000D3568B4220D02A23D35603208B4210D038
:100C9000124B1A781970A271BFF35F8F00220B4BB1
:100CA0001A608CF31088F8BDB2680D48D050EFE799
:100CB000002043001B189B00D218FF239371094B9F
:100CC0009380E5E70120F4E70220F2E7240100D059
:100CD00000ED00E08C030020AAAA0000061200200C
:100CE000CD01001000BDFFFF054B064A1360064A08
:100CF000136053609360D3601361536193617047D5
:100D00008080808000E400E004E400E0D02300B5AF
:100D10001B061B680100074883B0C018064B002261
:100D200000930523FFF7E2FC002801DB1F23181ABC
:100D300003B000BD00120020045A0010024B9C4674
:100D400061448900016070474000003483680B48AB
:100D500010B5844661446244090112019A18591879
:100D600054684B6801209C4201D802D00020C0B2D8
:100D700010BD12680B689A42F9D8F7E7FFFFFF0F22
:100D80000A4B1968EFF3108072B60A68002AFCD08B
:100D9000BFF35F8F1B68BFF35F8F00221A6080F381
:100DA000108840BF002000217047C046D0110020AD
:100DB000F8B557464E464546DE46E0B599460CAB7B
:100DC0001C780DAB1B78060090469A460768002CED
:100DD00011D1BC7B002C42D065003B682D19033D2E
:100DE00059194B78BB73002B00D1FB7300238B7018
:100DF0004B700B7004E065003B682D19033D5919D9
:100E0000B268284B94464246E3181B0163441A60BB
:100E10004A465A600A9A9A600B9ADA6000238B70ED
:100E20004B700B707B7B9B46002B27D022007B688E
:100E30005946B86898475B465B005B443A68033B99
:100E4000002812D058465519A870D118D35C002B31
:100E500000D06B705B460C707B73A3450FD0F0BC69
:100E6000BB46B246A946A046F8BDD3189C7051199E
:100E7000525D002A00D05A705B460B707C7342466C
:100E80004B46307D00F046FC051E06D05346002B35
:100E900003D12100306800F059FE0E9B002BDED0FC
:100EA0001D70DCE7FFFFFF0FF0B5DE464E465746EC
:100EB00045460023E0B58DB00A936B4B8200D358B2
:100EC0000B90994600239B464B46079300F098FBF6
:100ED000079C06000F006268EFF3108572B6136876
:100EE000002BFCD022000794BFF35F8F2468637B44
:100EF0009946002B67D092685C4B90464B441B018F
:100F0000984443461A685B6810001900801BB94179
:100F100000295FDD0B9800F0FDFB002300269846BA
:100F200000279A46079C6368BFF35F8F5A461A6092
:100F300085F310885346002B08D10028C6D10DB088
:100F4000F0BCBB46B246A946A046F0BD0A9B41464E
:100F500018024B461843D047089009916268EFF396
:100F6000108572B61368002BFCD00794BFF35F8F17
:100F70000899099A002A48DB114303D0079B1B6993
:100F8000002B5DD1079B1B68D97B002907D04A0045
:100F9000521819688C4649466244033A51704A46D1
:100FA000DA734B46079A013BD168CA5C0132CA54D6
:100FB0005B46079A13615368BFF35F8F5A461A6006
:100FC00085F3108882E700230026984600279A467A
:100FD0000020A7E7002901D100289BD10021200093
:100FE00000F036FD43461E685F689B68079A9A4684
:100FF0004346DB689846D3684B44013B1B780A9311
:101000001B020343136100208CE72369002BB9D036
:1010100033003C005B1A94411A002300A74219D800
:101020009F421BD0594604910121039149460291E8
:1010300041460191514607980091FFF7B9FEB7E785
:1010400000F0DEFA089A099B06000F0092197B4116
:101050009942E5D901225242D317E3E79642E1D9FA
:1010600001225242D317DDE7B4110020FFFFFF0F2A
:10107000F8B557464E464546DE46E0B53E4D8146FC
:101080008A466A68EFF3108872B61368002BFCD0AA
:10109000BFF35F8F2E68B47B002C39D067003368B4
:1010A0003F19033FDB195A78B273002A00D1F2735B
:1010B000A968324A8C464946A2181201624411605E
:1010C000514651602E4991600021D160997059704C
:1010D0001970737B9B46002B31D022001900B06839
:1010E000736898475B465B005B443268033B0028AB
:1010F0001CD05846D719B870D118D35C002B00D03B
:101100007B705B460C7073735C4519D0002622E03F
:101110006B68BFF35F8F1C6088F31088012040422A
:10112000F0BCBB46B246A946A046F8BDD3189C7099
:10113000D119D25D002A00D05A705B460B707473CF
:101140004A465346287D00F0E5FA061EDED021000F
:10115000286800F0FBFCEB681B19013B19786B68F1
:10116000BFF35F8F00221A6088F310880020002EE2
:10117000D6D108022043D3E7D4030020FFFFFF0F9E
:10118000810D001010B5124C6368002B04D00A21A9
:101190001048FFF7D3FD10BD23000F4A102120682F
:1011A00000F074FB032000F01FFA032000F022FB84
:1011B00003200A4900F068FAFFF7FCFA084B9C4646
:1011C000032360442375074B80006060DC60DEE72A
:1011D000D4030020D01100204D0D0010A90E0010E6
:1011E00040000034B411002000487047D4030020B0
:1011F000F0B545465746DE464E46E0B585B001930C
:1012000010AB1B780500039300239A469846009282
:101210006A68EFF3108972B61368002BFCD0BFF335
:101220005F8F2E68B47B002C49D0670033683F196C
:10123000033FDB195A78B273002A00D1F273A96810
:101240004D4A8C4600980199A21812016244106020
:1012500051600E9991600F99D16042469A705A7010
:101260001A70737B9B46002B41D022001900B06896
:10127000736898475B465B005B443268033B002819
:101280002CD05846D719B870D118D35C002B00D099
:101290007B705B460C7073735C4529D0EB681B193F
:1012A000013B18786B68BFF35F8F42461A6089F381
:1012B00010885346002B28D10002204307E06B68BA
:1012C000BFF35F8F1C6089F310880120404205B096
:1012D000F0BCBB46B246A946A046F0BDD3189C70F0
:1012E000D119D25D002A00D05A705B460B7074731E
:1012F000287D009A019B00F00DFA82460028CDD08F
:101300002100286800F022FCC8E7039B002B31D0A5
:101310000E9B00200F99984703000B432AD006002C
:101320000F1E0DDA0098019902000B00921BBB41C1
:10133000994215D81AD000920193039B9A4667E709
:1013400000F05EF902000B00B6185F413000390072
:1013500000900191BB4203D8EFD100998A42ECD9A9
:1013600001235B42DC1700930194E6E70099914268
:10137000E1D9F5E70020AAE7FFFFFF0FF0B5040071
:101380000D0006267642F717C64636196F4100B59E
:101390008F4213D810D000F033F932003B00121AFC
:1013A0008B41002B14DC002B37D02900200000F0EB
:1013B0005BF980BCB846F0BD8642ECD90026002718
:1013C00000F01EF932003B00121A8B41002BEADDBF
:1013D00030003900FFF74CFE0028E6DB002398467A
:1013E000BC460F4A0F4F7B6A9C4504D8B96A8E42AF
:1013F000DBD99C45D9D11168EFF3108072B60B6828
:10140000002BFCD0BFF35F8F1368BFF35F8F4146A3
:10141000196080F3108820BFE5E7002AC5D0D7E720
:10142000D01100200040054070B5060000F0E8F83B
:10143000FA2204000D00002330000021920001F088
:1014400045FA001969418D4205D802D0FFF796FF91
:1014500070BD8442FAD901204042C117F6E7C04668
:10146000F8B5CE46474680B506000C00FFF700FEF3
:1014700000280CDC2C4B0020596AA14203D39B6A44
:101480000130B34246D3C0BCB946B046F8BD20BF18
:10149000264D6A68EFF3108772B61368002BFCD0F4
:1014A000BFF35F8F2B68C1B29C466246FF23527B1D
:1014B00003408A420BD05A00914662461268994412
:1014C00090464A464244033A9278002A1DD0EA6880
:1014D000000A90464344013B1B78C0B283421ED0B1
:1014E0006B68BFF35F8F00221A6087F310880E4A83
:1014F0000020536AA342C6D3926A0130B242C2D2DC
:10150000181B421E9041C0B2BDE72B699842E7D13B
:101510002A61E5E7081B431E9841C0B2B3E7604665
:1015200000F014FBDCE7C04600400540D403002077
:10153000F0B5D6464F464646C0B5EFF305833F2289
:10154000134018001038EFF3108C72B6204D2A6843
:10155000002AFCD0BFF35F8F0122110081401D4C97
:10156000884661631C4917000E788A463100C140E5
:101570000F400A4209D1BFF35F8F2F608CF31088B0
:10158000E0BCBA46B146A846F0BD14498200646A80
:1015900051588C420FD3124BD25843469E43534668
:1015A0001E70BFF35F8F00232B608CF31088002A1E
:1015B000E6D09047E4E70B4A9B00904643441A6804
:1015C0001A60BFF35F8F00232B608CF31088D7E77E
:1015D000280100D00040054009120020DC11002045
:1015E000E40B0020D03F054010B50100024A03483B
:1015F000FFF75AF810BDC046285A00100512002007
:10160000034B596A0A00986A596A8A42FAD17047AC
:101610000040054070B504000D00124A536A1900DD
:10162000966A536A8B42FAD13000190024184D4152
:10163000AB4211D80ED02B000A494A6A9A42FCD319
:1016400007D1084A02E0516A994202D1916AA14247
:10165000F9D370BDA642EED9012301246442E517F7
:101660005B42E9E700400540064A536A9942FCD8CC
:1016700007D1044B02E05A6A914202D19A6A82422F
:10168000F9D370470040054070B504000D00EFF33A
:10169000108672B61A4A1368002BFCD0BFF35F8F16
:1016A000002D1BD02000FFF7D1F8164981420AD047
:1016B0002000FFF7D3F801212000FFF797F801235E
:1016C000A340114A1360114BA400E550BFF35F8F94
:1016D00000220B4B1A6086F3108870BD0B4BA200E2
:1016E000D5500122A2400A4920000B7893430B7089
:1016F0000449FFF7C5F900212000FFF777F8E5E777
:10170000280100D03115001038600540E40B00209E
:1017100009120020F0B54F46D6464646C0B5070030
:101720002F4C616A0D00A66A616AA942FAD18B4208
:1017300008D805D00120E0BCBA46B146A846F0BDA5
:10174000B242F7D9EFF3108A72B626480168002931
:10175000FCD0BFF35F8F0125BD402349204C884654
:10176000097889462943C9B28C46414660460870CB
:10177000391D1E48890065630A51B9000B50216A62
:101780000020294219D0616A0800A66A616A814274
:10179000FAD18B4219D801D1B24216D8CC451DD00E
:1017A0000F4B1F201D625D6301230740BB40104AA1
:1017B0001E38136043464A461A70BFF35F8F0022FB
:1017C000084B1A608AF31088B5E70020BFF35F8FDB
:1017D0000022044B1A608AF31088ACE70120ECE782
:1017E00000400540280100D009120020DC11002033
:1017F00080E200E0EFF3108C72B60A490B68002B10
:10180000FCD0BFF35F8F01238340074A0748136270
:1018100002789A430270BFF35F8F00230B608CF352
:1018200010887047280100D00040054009120020B0
:1018300070B5050014001600002915D00C00002A10
:1018400012D06B68806898477200630092191B1968
:101850002968033A033B002808D08A189470C818F6
:10186000CB5C002B0FD10670200070BDCB189E7092
:1018700088188A5C002A02D104703400F4E75A7098
:1018800004703400F0E753700670EDE710B5836024
:101890000023CCB243730133426004738373C47377
:1018A0000068421C012C05D90133DBB213700332EE
:1018B0009C42F9D1FF2319404B00591800234018CE
:1018C0000338437010BDC046F8B5CE464746060003
:1018D0000C0080B5002907D04D0003686D18033D4A
:1018E0005A195778002F04D12000C0BCB946B04621
:1018F000F8BD7900C91903398846434459788946A7
:1019000000215970517073683A002100806898472F
:101910003368002814D042469A18947059195B5DB8
:10192000002B00D053700F70270049463000FFF79E
:10193000CBFF390002003000FFF77AFF0400D3E745
:10194000424641465D19AF709A185B5C002B00D08F
:101950006B701470E9E7C046F0B557464546DE4661
:101960004E46E0B50D006B0001685B19DF1E0400F8
:10197000C85D83B00192CA1900284CD043001B18DF
:10198000033BCB185E78B446002E16D1019E002E84
:101990003ED0E67B002E04D073009B19CB18033B8E
:1019A0005D70E57300282FD10023537003B0F0BCA5
:1019B000BB46B246A946A046F0BD72006244033A57
:1019C00089184A78904600224A7091465A70010060
:1019D00032002000FFF72CFF43468246002B07D041
:1019E0005B0021684344033BCB185A78002A16D188
:1019F000424651462000FFF71BFF2168019BCA1990
:101A0000002BC6D10028CFD043001B18033BCB18B6
:101A100000219970C8E7019B002BBAD1C4E75000A0
:101A2000801803380918487883464846487058702B
:101A300041462000FFF7FCFE594680462000FFF794
:101A400043FF414602002000FFF7F2FE8046CFE749
:101A5000F0B557464546DE464E46E0B583B00191A7
:101A6000457B04006B0000685B19DF1EC15DC21975
:101A700000294ED04B005B18033BC3185E78B44678
:101A8000002E18D1019E002E40D0E67B002E04D0FF
:101A900073009B19C318033B5D70E573002931D1B6
:101AA000002328005370617303B0F0BCBB46B246FC
:101AB000A946A046F0BD72006244033A80184278FD
:101AC00090460022427091465A7020003200FFF783
:101AD000AFFE43468246002B07D05B00216843449B
:101AE000033BCB185A78002A17D1424651462000B2
:101AF000FFF79EFE019B01002068C219002BC4D194
:101B00000029CDD04B005B18033BC3180020987010
:101B1000C6E7019B002BB8D1C2E7500080180338FC
:101B20000918487883464846487058704146200056
:101B3000FFF77EFE594680462000FFF7C5FE41466E
:101B400002002000FFF774FE8046CEE770B5040067
:101B500000292CD0437B8B422ED0056848004018CA
:101B6000033828188278002A21D053009B18033BA1
:101B7000EA5CEE188A4202D11BE0002A08D053002A
:101B80009B18033BEB185A788A42F6D142785A7078
:101B900000230122837043702000FFF7DDFE617B8C
:101BA00002002000FFF744FE6073012000E00020E7
:101BB00070BD43783370EBE701221900FFF7CCFECC
:101BC00060730120F4E7C04610B50400FEF7F2FD93
:101BD00001002000FFF7B2F8FF232371BFF35F8FEE
:101BE00010BDC04610B50400FEF7E4FD0100200062
:101BF000FFF7A4F8FF23A380BFF35F8F10BDC0469B
:101C000010B504000120FEF7E1FD044B9C46604442
:101C100080002060BFF35F8F10BDC04640000034DD
:101C20002B4B2C4A70B51A602B4A2C4B2C491A604E
:101C300014008B689C43FBD12A4D2B4EB54208D231
:101C4000013E761BB60808CD984723000134B34205
:101C5000F9D100F07BF8254A204B1A60204A93689E
:101C6000DB43DB01DD09002BF9D14022204B214E63
:101C7000214C9A675A671A67DA66B44208D2236819
:101C800020000834002B1FD0FFF7ACFFB442F6D37E
:101C90001A4E1B4CC022A168300000F0D9FEA6608D
:101CA000FEF77AFDFFF720F8FFF76CFA154C164E99
:101CB000B44208D2013E361BB60808CC98472B0028
:101CC00001359E42F9D170BDFFF77EFFD5E7C046D2
:101CD00000E00040BFCDFBFEFE7F3C0000F0004076
:101CE00000C000406804002078040020FFFFFF01CE
:101CF00000F0014068040020600400200000002083
:101D000000ED00E0780400208004002000BEFDE724
:101D10000FB400B5084883B000F0C6FF049B002B49
:101D200007D005A91800019100F03CFA034800F023
:101D3000BBFF00BEFDE7C0464C5A00105C5A0010C5
:101D400010B50148FFF7E4FF605A001030B50C20D1
:101D500083B000F0B7F9FEF717FD00280ED0944BC2
:101D6000944A1A605A609A60DA601A615A619A61FC
:101D7000DA611A62904A5A6203B030BD8F4CA06794
:101D800000F0F4F901228E4B1A60636C012BFCD138
:101D900003228C4B1A60894A936B012BFCD10133CF
:101DA0000121894A89480093043300F033F905235F
:101DB000874A00930121874800F02CF9864B5A6826
:101DC000FF2A02D8802252005A608022784C7D4B34
:101DD00021691201804D1A60002905D0606900F068
:101DE00033FA01300138FDD1E0217B4B02201A6823
:101DF0001140802252012A43116019684840032192
:101E00000140116004219A681142FCD08022802197
:101E100092012A4309011160802252005A606F4BDF
:101E200023616F4B5968FF2900D85A600321644A27
:101E30006B4B116002399A681142FCD0E0201A689D
:101E40001040802252011A43106018684840032154
:101E500001400220116062498A681042FCD0802251
:101E600092011343802212011A6080225D4B5200BE
:101E70004A6063615C4B5968FF2900D85A60802230
:101E80005A4BE1691201584D1A60002905D060696A
:101E900000F0DAF901300138FDD1E02252490B6837
:101EA0001A4080235B012B431A60802380229B0110
:101EB0002B4312011A6080223E4B52004A60E361BC
:101EC0004B4B5968FF2900D85A608022494B216A40
:101ED0001201474D1A60002905D0606900F0B4F97D
:101EE00001300138FDD1E02241490B681A408023BE
:101EF0005B012B431A60802380229B012B4312013C
:101F00001A60802380225B004B602A4BD20223623E
:101F1000394B5968914200D25A608022374B616A2E
:101F20001201354D1A60002905D0606900F08CF966
:101F300001300138FDD1E0222F490B681A4080237F
:101F40005B012B431A60802380229B012B431201EB
:101F50001A608023DB024B60174B6362284B5A6880
:101F6000FF2A02D8802252005A608022254BA169A4
:101F70001201234D1A60002905D0606900F064F950
:101F800001300138FDD1E0221D490B681A40802341
:101F90005B012B431A60802380229B012B4312019B
:101FA0001A6080235B004B600E4BA361E4E6C046E1
:101FB000F80C0020006CDC021BB700000080004021
:101FC0003CB0004030B00040002F68590080024013
:101FD000008C864700C0024030800040001BB700E4
:101FE0003C800040405973075480004054B000408A
:101FF0006080004060B000406C8000406CB00040E9
:102000004880004048B00040014B8000C0587047F5
:10201000F80C0020F0B5C646040000B50C20904630
:102020001F000E0000F010F94101091A8D01691A14
:10203000C90009188901404600F006F9069B3F04D3
:102040001A0323681743002B22DB1A4B1A4DE218A0
:1020500053425A4180235B019C461203174B624452
:102060001A60174B1A601100AB689943FBD1C0226C
:10207000231D92011A4321232660A0601360236868
:10208000002BFCDA0823E760136080BCB846F0BD83
:102090003F2322681340B342D7D1A3681B051B0D11
:1020A0008342D2D1EE22E368D2021340BB42CCD1AC
:1020B000EBE7C0460040FDBF00C0004000E000402C
:1020C00000F000408023024A9B000343D362704724
:1020D0000080054010B5140080221B4BD2051A6009
:1020E00000281AD00123194A1843194BDA61194AFA
:1020F00042401A62596298628022134BD2051A60DC
:102100001549164A1160E022D2041A60002C07D14A
:102110008022134B12061A6010BD0D4BD861EBE7FD
:1021200063011B1B9A008023121912015B049A425F
:1021300000D30C4A0C4B1A60054B5A608022084BA6
:10214000D2051A60E8E7C04600B00540D3C007B02A
:10215000008005402D3FF84FFCFF010008200140A2
:1021600000A00540FFFFFF0094110020AA23064AAB
:102170001B0113602F230549D360054B1960536879
:10218000002BFCDA7047C0460040024000B0FA0065
:102190000060024010B5002800D110BD00F034FDF1
:1021A000FBE7C04610B5094A0300146884B0002C50
:1021B00008D0012200910648524203A9A0470120FD
:1021C00004B010BD00F070FD0020F9E79011002070
:1021D0009521001001480421014B184700040020FC
:1021E00005220010142310B50100188804331B8841
:1021F000984710BD162310B50100188802331B88BC
:10220000984710BDF8B54746CE4680B50F1E19D089
:1022100014239946043304000025012698464B46B2
:102220001888434621681B88984701C4431E98417B
:10223000013540420640AF42F1D13000C0BCB94642
:10224000B046F8BD0126F8E7114A936F9B0813D2F8
:1022500010665166002905D0FFE7FFE7FFE7516FE1
:10226000106F704704B5002801D00020C04303F070
:102270008BFB002104BDC046F0B5146E556E576F40
:10228000166FFFF7E5FF1466556657671667F0BDD2
:10229000000000D048404140484018B41B4B5B68E8
:1022A000FC46019308BD04DF5B24001018B4174BF3
:1022B0001B68FC46019308BD00DF652400109446AE
:1022C000134A926F920809D2624618B40F4BDB682A
:1022D000FC46019308BD0CDF1D2700100C4AF0B529
:1022E000146E556E576F166F6246FFF7EEFF084A81
:1022F0001466556657671667F0BD18B4034B9B68A4
:10230000FC46019308BD08DFC125001088050020A8
:10231000000000D00021002805D17047C1174840B7
:10232000401AFAD0C90713B5064B1B6898470CBC76
:10233000441CA2401005120B0349091B090519434F
:10234000114310BDCC1100201F04000010B54C003B
:10235000620D8023D218DB00D21A5B057E2A10DDC5
:102360009E3A13DACC170903490819435242D14067
:10237000640001341532202A05DAD0400843604356
:1023800010BD002010BD0846604310BDC80FC01826
:10239000013810BD132370B51D78012D15D010DD47
:1023A0001C48FFF727FF1C4C01008022200000F092
:1023B0004FFB022D06D01948FFF714FF184B186089
:1023C00070BD154C174BA364F5E7164B124C2360F8
:1023D0006360A360E36023616361A361E3612362DF
:1023E0006362A362E36223636363A363E3632364BF
:1023F0006364A364E36423656365A365E36523669F
:102400006366A366E36623676367A367E367A36402
:10241000D1E7C04653440000880500204C3300003B
:10242000CC1100202924001007B5604601880A0A53
:102430000230DF2AFAD1C9B2820804D30288408868
:102440000004104300E00068014A5050039007BDAB
:10245000880500200FB403BC0CBCF0B50124E407D0
:10246000634000E0F0B50C0DCF0F661E3605891BEA
:10247000640503D3C943404200D30131640D03D046
:10248000661CF60A07D0E41B00207F00791C890730
:102490008912803C24031D0DDF0F6E1E36059B1B29
:1024A0006D0503D3DB43524200D301336D0D03D0DE
:1024B0006E1CF60A07D0ED1B00227F007B1C9B07D9
:1024C0009B12803D2D032F1B661B58D4A446202E43
:1024D00046DA20371400BC401D00BD40F2403341B5
:1024E0002A4380185941CB0F05D0C943C04300226D
:1024F00064425041514162464D0D28D10D0D07D126
:1025000000281FD0241940414941013A0D0DF9D04E
:10251000640006D3013000D30131002C01D1400802
:102520004000013A0BD4941CE40A04D11205114472
:10253000DB071944F0BDD907204B194300E0D90748
:102540000020F0BD0029DDD1002CDBD1F0BD01322F
:10255000C6074008CD0728434908002EE1D0D9E737
:102560003C2E29DA203E40371400BC4000D0012424
:10257000F24014431A00BB401C43D317ACE7AC46EF
:10258000202F08DA20360400B4400D00B540F84092
:1025900039412843A5E73C2F0CDA203F40360400A0
:1025A000B44000D00124F84004430800B1400C437B
:1025B000C117EAE710001900002494E70000F07F3B
:1025C000F0B50C0D661E3605891BE60A6405640D20
:1025D00002D0651CED0A04D0002001210905803CD1
:1025E0002403A4461C0D671E3F05DB1BE70A640598
:1025F000640D02D0651CED0A04D0002201231B05E6
:10260000803C24037740644497B484B296B2744308
:10261000070C7E43150C6F4380B26843361802D313
:10262000012000043F183004350C00197D41844618
:1026300088B29AB250430C0C62431F0C7C438EB29A
:102640007E43921902D301263604A4191604170CEE
:102650003618674101BC81B29AB25143040C6243FF
:102660001B0C5C4380B25843121802D301200004B3
:1026700024181004130C401863412D185E410020EB
:10268000474106BC88B293B258430C0C6343120C0A
:10269000544389B251435B1802D3012109046418E1
:1026A00019041A0C091862416D185641002047415F
:1026B00018BCF902720D1143F0026A0D1043ED02CD
:1026C0000A0D03D16D1940414941013B124E9B1B3C
:1026D0007600B3420ED26D0007D30130002671415F
:1026E0006646354301D1400840001B05C918E40780
:1026F0002144F0BD0BDA013306D1013004D10131A0
:102700004F0D01D04908F2E7E1070020F0BD013686
:1027100031050020EBE70000FF030000F0B51C0DC1
:10272000671E3F05DB1BE70A6405640D02D0661CCB
:10273000F60A04D0002201231B05803C2403D02587
:102740002D060026F6432E661E096E66CE0FF6197C
:10275000B44649004F0D02D07E1CF60A03D000207B
:102760000021403F3F033E1BB600B444013F7F05BC
:10277000C91B49082E6F013676089C02950D25432A
:102780007543ED137543AD1301356D10F603761BDC
:102790000CB4CC02450D2C43A2B2B3B25A43270C61
:1027A0007B43350C6F43A4B26C431B1902D3012445
:1027B00024043F191C041D0CA4187D4124196D41EB
:1027C000009A91B2ACB26143170C7C432B0C5F436F
:1027D00092B25A43A41802D301221204BF18220451
:1027E000230C52187B41019C6C431B19520ED901DA
:1027F0000A434401A01A81B2B2B2514303145A43AE
:10280000360C734387B27743D617D21900277E411F
:1028100036049B191704160C7F185E417316ED18C9
:10282000F301002680337541A90F06D16400690ABF
:10283000E8055B0A184309D22FE004229444803350
:102840007541A90AA8059B0A184326D3404149416E
:102850002404009A019B0D005543641B4343E41A72
:1028600095B286B27543170C7E43030C5F4392B258
:102870005A43B61802D301221204BF183204330C93
:1028800052197B4152429C41002C02D4002201305B
:1028900051414008CA071043490802B06246D707B1
:1028A0009210084BD218084B9A4203D2120589188D
:1028B000C919F0BD0020002A01DC3900F0BD013348
:1028C0001905F5E7FD030000FE07000051434343EF
:1028D000C9188C46110C83B24B4310B4040C6143ED
:1028E00092B280B2504362431C041B0C001910BC0E
:1028F00059411304120CC018514161447047000043
:102900004840414048400E4B5B6818470C4B1B68E1
:1029100018470C4A936F9B0802D2094BDB68184793
:10292000F0B5146E556E576F166FFFF7F6FF054A38
:102930001466556657671667F0BD014B9B681847CC
:1029400088060020000000D0491A002808D1084657
:1029500070470000C10FC90700D54042002817D0BA
:10296000F44603B40B4B1B68984706BC81409E3865
:102970004042803107D20B0607D04900490AC00502
:102980001043084360470130F8E7490A8902F5E738
:1029900070470000CC110020014B5B6A1847000013
:1029A00088060020132310B512481C78FFF722FC7C
:1029B0000100012C0AD003DD80220F4800F048F806
:1029C0000E48FFF70FFC0E4B186010BD0A4C542246
:1029D000200000F03DF80B4B6365A365E3652366BB
:1029E0006366A366E36623676367A367E36723629F
:1029F000E361E5E753460000880600204C33000001
:102A0000CC110020092A001007B5604601880A0A87
:102A10000230DF2AFAD1C9B2820804D30288408882
:102A20000004104300E00068014A5050039007BDC5
:102A30008806002001480421014B1847100400209B
:102A400005220010014B1B681847000010040020ED
:102A5000014B5B681847000010040020030010B50C
:102A6000080011001B68984710BDC046F0B54F46DE
:102A70004646D646C0B5437C07000E001500002B25
:102A80003DD000200024002A34DD4B1E98461E4B0A
:102A900099460DE043461B5D0D3B5A425341621C73
:102AA0009246325DDBB20A2A0AD0554517D0544609
:102AB000002CEFD1621C9246325D3B7C0A2AF4D195
:102AC000002BF2D13B68A04203DA211A3018984754
:102AD0003B6848460221984750465545E7D1A842F1
:102AE00003DA291A3B6830189847335D0D3B5A4288
:102AF00053413B74E0BCBA46B146A846F0BD0368FA
:102B0000110030009847F5E7D05A0010F0B557464D
:102B10004E464546DE461C00D023E0B51B061F6826
:102B2000344B83B006000D00180001A991469A4667
:102B300002F032FF8046002808D1019B7FB29F42FD
:102B400004D0504602F038FF012398466B1C03D195
:102B5000300002F0D5FE0500002C27D1264F274B70
:102B60001C68002C18D04B46002B21D1244B9946D1
:102B700002E0E468002C0FD02368002BF9D04B460C
:102B80001B68002B01D0A342F3D120002A003100A2
:102B9000B847E468002CEFD14346002B25D103B0A1
:102BA000F0BCBB46B246A946A046F0BD154FD6E7DD
:102BB000134B99460A239B4602E0E468002CEBD0B5
:102BC0002368002BF9D04B461B68002B01D0A34291
:102BD000F3D12A0031002000B8475A466B46200046
:102BE0001A7101A90122B847E7E7504602F0C4FE76
:102BF000D5E7C046600400206D2A0010880D002033
:102C00008C0D00205D2A0010F0B5CE46474680B5F9
:102C100083B06B46DE1CD02330701B061C681F4B34
:102C2000804601A91800994602F0B6FE071E20D082
:102C30001B4B1C68002C28D01A4D02E0E468002CC5
:102C40000FD02368002BF9D02B68002B01D0A342B2
:102C5000F4D1200001223100FFF708FFE468002CC6
:102C6000EFD1002F11D1404603B0C0BCB946B046E9
:102C7000F0BD019B64B29C420BD0484602F09CFE22
:102C8000074B01271C68002CD6D1484602F074FE81
:102C9000E9E7034B1C68002CCED1E4E76004002078
:102CA000880D00208C0D002070B5040002F028FE75
:102CB00000230100050001222000FFF727FF084B39
:102CC0001C68002C06D06368002B05D09847E46888
:102CD000002CF8D1280070BDE468002CF3D1F9E78E
:102CE000880D00200A4A1368002B05D10CE01A0059
:102CF000DB680C32002B07D09842F8D1002902D1B2
:102D0000C3681360C16070470029FCD01060FAE707
:102D1000880D002010B500F077F910BDF0B5184B04
:102D200085B01A685D68174F174E01923C68002CF9
:102D300003D113E0E468002C10D03368002B01D0DD
:102D4000A342F7D1A368002BF4D0012103A8984730
:102D50000028EFDD02AB187905B0F0BD0B4B5A6AC5
:102D6000954208D89B6A01998B4201D2954202D0C4
:102D700001204042F0E701200021FEF74BFCD5E79F
:102D8000205A0010880D00208C0D002000400540C6
:102D90007047C0460022014B1A707047071200208E
:102DA0004B790020FF2B0BD18B79002B08D1CB79ED
:102DB000012B05D1082A03D98A78024B09301A70F1
:102DC0007047C046071200200120704770B50029E7
:102DD00015D115495379107909781B020343002056
:102DE000994200D070BD5378012B0AD0022BF9D143
:102DF000002064220021FFF76DF90120F2E7012095
:102E0000F0E79478D278050012021443D20502D577
:102E1000620A93401D000548FFF7E4F97F21030093
:102E2000214028009847C046071200205542000064
:102E30000123037000487047D45A001048780B787B
:102E40008A7800021843120410439622CB7810B5FA
:102E50001B060343D200934200D010BD0348FFF786
:102E6000C1F90021030008009847C0465542000000
:102E700070B5184C82B006000D00200001A902F0C8
:102E80008BFD002808D1D0231B061B68019A9A42AB
:102E90001CD0200002F090FD002001F021FE00284F
:102EA00007D103256D42200002F066FD280002B024
:102EB00070BD002001F02CFE0028F2D02A00310065
:102EC000002001F031FE051EEBD0ECE703256D423A
:102ED000ECE7C046D4110020F0B5DE464F4646462A
:102EE000C0B5334B82B081460D00180001A99B4646
:102EF00002F052FD002808D1D0231B061B68019A5E
:102F00009A424FD0584602F057FD002001F0E8FDEC
:102F100000283FD00024002D41DD264E11E04B4615
:102F20000020191901F074FE804600F067FE0020B1
:102F300001F032FEFEF764FB306071604444AC4245
:102F40002DDA002001F07EFE2F1B0200B84200DDCA
:102F50003A00002AE3D100F051FE002001F01CFEEF
:102F6000002001F0BDFD002819D0002001F06AFE0C
:102F70000028E4D1FEF744FB326873680F0000219B
:102F800084460D4812184B419F4208D8D7D194452A
:102F9000D5D904E000200021064B1860596058463E
:102FA00002F0EAFC02B0E0BCBB46B146A846F0BD68
:102FB000D41100208005002020A1070010B5044B8B
:102FC0001878FDF725FCFA200021800010BDC046CE
:102FD0000812002010B5024B1878FDF719FC10BD3F
:102FE0000812002010B5074C0021200002F0D4FC8C
:102FF000002800D110BD00F001FE200002F0BCFC52
:10300000F8E7C046D4110020F0B5244B85B01B78FA
:1030100002F000F82248FEF7D7FD0120FDF776FE0A
:10302000FF23204C204920701840FDF717FC207822
:103030000121FDF7DBFB0520FDF7F2FB041E0CD0A0
:10304000002205201949FDF733FC01211848FFF73C
:1030500049FE0124200005B0F0BDFEF7C5F80500CB
:10306000FEF7CEFAFA2206000F0000239200921912
:103070007B4199420ED80BD0012102910021019190
:103080000C4928000091FEF7B3F80028E2D0DCE7F5
:103090009042F1D901225242D317EDE7F45C0010BF
:1030A000D411002008120020E52F0010D52F0010A9
:1030B00020040020BD2F001010B5002001F010FDED
:1030C00010BDC046004870478C5B00100048704738
:1030D000385B001070B5040016480378002B20D030
:1030E000002C06D1C1251448144BAD004380058047
:1030F00070BD052C1CD8124BA400E4580E480123C7
:10310000811C013C04E001330A800231142B0CD0F5
:10311000E25CDDB2002AF6D1C0236D009B001D43A6
:10312000E5E7112102F00AFADAE7CA25AD00DEE789
:103130000020DDE7EC110020600D002009040000F4
:10314000A05B0010F0B5982357464546DE464E4634
:103150006C4AE0B5D75880253C006D02883B9A4602
:1031600083B02C402F420FD001222321664B002038
:103170005A54DA70654901F071FA8022644B920268
:103180001A65644B2C009A46FB0617D480235B011A
:103190001F4245D18023DB011F4200D088E08023FD
:1031A0001B021F4200D091E0BC4200D0A5E003B05A
:1031B000F0BCBB46B246A946A046F0BD514B9B6D44
:1031C0009846002B27D0524B00249B46012399465A
:1031D00043460126B8461F0004E001347600E4B2FD
:1031E000202C17D03742F8D05B469E654B466508C9
:1031F000A3436D00ED18444B6D019C4665442800C7
:1032000000F088FB00286CD10134B743E4B27600AB
:10321000002FE5D1474680235B0154461F42B9D0B9
:103220001C430023374A00211360384A3A48936010
:10323000D3603A4A9360D360394A9360D360394A85
:103240009360D360384A9360D360384A9360D36008
:10325000374A9360D360374A9360D360364A9360AD
:10326000D360364A9360D360354A9360D360354A61
:103270009360D360344A9360D360344A9360D360E0
:10328000334A9360D360F0229200FFF7DBFB314BAF
:10329000314A00211A600020012201F0B5F9802294
:1032A0001B4B12031A658023DB011F4200D176E716
:1032B0000122042100201C4301F016F91022144BB6
:1032C0001A6580231B021F4200D16DE701220521F0
:1032D00000201C4301F008F980220D4B12011A65F1
:1032E00062E74B46AA8AA97800200093002301F0E8
:1032F000DDF9280000F04AFA86E7210017487940F6
:10330000FEF706FD00001150900D00200000105047
:103310000030115010000100D00D002008001050A6
:1033200010001050180010502000105028001050AD
:10333000300010503800105040001050480010501D
:10334000500010505800105060001050680010508D
:10335000700010509811002080011050B85B0010D0
:1033600010B501210520FDF741FA10BD10B500226E
:103370000021024800F032FA10BDC046B00D002016
:103380008022024B5202DA647047C046002011507E
:10339000F0B5C64600B5060000F0D2F90C23354D55
:1033A0000520AB673449FDF759FA40239846334C62
:1033B000402200212000FFF745FB43460127A3835D
:1033C000212100232E4A6770A260136063545F318D
:1033D00061844146A187023963542A4A2A496360BD
:1033E000E260A1620B60E262284A63629360D3608C
:1033F000274A20009360D360264A00219360D3605F
:10340000254A40309360D360244A9360D360244AB5
:103410009360D360234A9360D360234A9360D36060
:10342000224A9360D360224A9360D360214A93601A
:10343000D360214A9360D360204A9360D360204ACE
:103440009360D3601F4A9360D360F0229200FFF72D
:10345000F9FA1D4B1D4A30001A6080239B052F642A
:10346000EB6490231A4AEA50FFF78AFF80BCB84603
:10347000F0BDC0460000115045310010900D0020F5
:1034800084001050000110508000105000001050B7
:10349000080010501000105018001050200010505C
:1034A00028001050300010503800105040001050CC
:1034B000480010505000105058001050600010503C
:1034C00068001050700010509811002080011050BA
:1034D00010D001000B785B0602D14B78052B00D091
:1034E00070478A78014B1A60FAE7C0460000115015
:1034F000F0B5CE464746072380B548798E780A79DD
:103500000340C8787F21800731401B02F409134330
:103510004F00820F944691462A4D3A195201AA183B
:103520009670012666405670604600269383D670DA
:103530009077CA00012C29D0234884468801624430
:103540008446AC44604682601660002929D01F4A38
:10355000C9009046414441603F223F3393434A466D
:10356000022A00D15B001A493F190A687F01D3186B
:103570000B60184BED195340EA604A469006184319
:1035800080231B0618436B68186010E012488446BD
:10359000880162448446AC44604682621660002919
:1035A0000AD1002364012D196B600C4BEB600120E4
:1035B000C0BCB946B046F0BD064AC9009046414479
:1035C0004162C9E7900D00208400105004001050A3
:1035D0009811002000001050800010500001105081
:1035E00000231C4A10B59360D3601B4A00219360EE
:1035F000D3601A4A1A489360D3601A4A9360D36022
:10360000194A9360D360194A9360D360184A936053
:10361000D360184A9360D360174A9360D360174A07
:103620009360D360164A9360D360164A9360D36068
:10363000154A9360D360154A9360D360144A93602F
:10364000D360F0229200FFF7FDF9124B124A1A6084
:1036500010BDC0460000105008001050100010505F
:10366000D00D0020180010502000105028001050DD
:1036700030001050380010504000105048001050DA
:10368000500010505800105060001050680010504A
:1036900070001050981100208001105010B57F204C
:1036A0000C0020404000E409110000191A00034BEF
:1036B0004001C01800F092F8012010BD900D0020CC
:1036C0007F22100010B50840CC090A4203D10749F7
:1036D0007D3A121B8A6680224000054B001940018A
:1036E0000021C018120100F057F810BD0020115041
:1036F000900D00207F22100010B508400A4200D132
:1037000010BD0023C90940004018044940010818B1
:1037100000220349C37000F03FF8F1E7900D00204C
:10372000FFF7FFFF7F21C309034A9B00014010B54B
:103730009A580248FEF7ECFA34040020CC5B0010E3
:1037400080220D4B520410B51A600C4B0C491A60C4
:1037500010008B689843FBD10A4C9C22002120006A
:10376000FFF770F98022002152010748FFF76AF93C
:103770000923636710BDC04600E0004000F0004030
:1037800000C00040000011500000105000230374DE
:10379000438283828361704710B58368002901D01A
:1037A0001C682140002A11D08024E40011432242E9
:1037B0000CD01A6822420BD1074A0A401A60FFE770
:1037C000FFE7FFE7FFE7FFE7FFE78368196010BD4A
:1037D0008078FFF7A7FFC046FFFBFFFFF0B5C646A6
:1037E000002300B5838201330374436804001E681C
:1037F000838B81611F1C934200D9171C8025BFB2A7
:10380000D21B93B2E278ED0063823D43002A02D0DE
:103810009025AD013D4301204240E2706278002ACC
:1038200051D0002B1DD1A023DB011D43354B1B6C58
:10383000354B33408026B6051E436368A2681E6080
:1038400013685B055AD4314B2B401360FFE7FFE749
:10385000FFE7FFE7FFE7FFE7A3681D6080BCB8460E
:10386000F0BD802252011543264A126C920703D400
:10387000A278D209012ADBD1A28B111C9A4200D96D
:10388000191C80278AB2FF009B1A90461743E278E2
:103890009BB26382002A03D090274146BF010F43A9
:1038A00001214A40E2706278002A19D0002B02D12F
:1038B0008023DB011F43164B3F043340A026F6054F
:1038C0003D431E43B9E73A00E068FFF7C1F8A3693A
:1038D0009C46802367441B021D43A761638AA0E7BF
:1038E000E0684246A1694030FFF7B2F8A36943445B
:1038F000A36180231B021F43638AD7E7A078FFF7E9
:1039000011FFC04600001150FFFFFFAFFFFBFFFF9C
:10391000FFFFFFDFF0B5C64600B5067C0400002EB1
:1039200000D1D2E083681A681D684378AD05AD0DFB
:10393000002B50D1838AEB189BB28382A18B6268E3
:103940008D4206D2002363821368300080BCB846E3
:10395000F0BD1268520002D58D4200D175E0638A35
:10396000002BF2D062681F1C16688B4200D90F1C16
:103970008025BFB2DB1BE2789BB2ED0063823D4342
:10398000002A02D09025AD013D4301214A40E2705A
:103990006278002A68D0002B2AD1A023DB011D43C6
:1039A0004F4B1B6C4F4B33408026B6051E4363685C
:1039B000A2681E6013685B0500D58DE04A4B2B4062
:1039C0001360FFE7FFE7FFE7FFE7FFE7FFE7A36815
:1039D00000261D60B9E72A00C1688069FFF738F842
:1039E000A38AA269EB189BB25219A382A261A5E730
:1039F0008022520115433A4A126C920703D4A278EE
:103A0000D209012ACED1A28B111C9A423FD880271D
:103A10008AB2FF009B1A90461743E2789BB26382FA
:103A2000002A2FD101214A40E2706278002A3ED05C
:103A3000002B02D18023DB011F432C4B3F0433407A
:103A4000A026F6053D431E43B1E7A26815686278DB
:103A5000AD01AD0D002A1CD1EB18A3828D4200D31D
:103A60007DE70023638270E73A00A169E068FEF712
:103A7000EFFFA3699C46802367441B021D43A76197
:103A8000638A88E790274146BF010F43CAE7191CA4
:103A9000BDE7E1682A004031A069FEF7D9FFA38A9B
:103AA000A18BEB18A382A3695B19A361D6E7E06839
:103AB0004246A1694030FEF7CBFFA3694344A361AE
:103AC00080231B021F43638AB2E77F238178084A61
:103AD00008481940FEF71CF9A078FFF723FEC046FE
:103AE00000001150FFFFFFAFFFFBFFFFFFFFFFDFF5
:103AF00034040020EC5B0010024B5878431E9841C0
:103B0000C0B27047C00A0020024B18784007C00FAF
:103B10007047C046C00A0020014B18787047C04665
:103B200003120020F8B54746CE4680B5294F050060
:103B30003B78002B04D00120C0BCB946B046F8BD8C
:103B4000532200212448FEF77DFF244C2000FEF77D
:103B50003BF8234B1C60234C20001C30FEF750F830
:103B6000200001F09FFC204B204E1C60204B98460B
:103B7000002B04D03000FFF75BF91E4B1860424663
:103B800000243378002A1DD01B4A9046194A9146DA
:103B90009C4210D31BD14346984701343378E4B29A
:103BA000A342F5D22800FFF7F3FB2800FFF7D8FB6C
:103BB00001233B70BFE74A46630012681B19DB0014
:103BC0009B58E9E701F04AF83378002BEAD000234C
:103BD0001B68FFDE03120020C00A0020780A0020C4
:103BE000140B00203C040020180B002002120020BF
:103BF000312E0010880700205D4C0010F0B5DE4625
:103C000057464E464546E0B58BB001F009FA00280C
:103C100000D144E1C24BC34E9B4607AC3568EA690C
:103C2000EFF3108172B61368002BFCD0BFF35F8FE7
:103C300029622800210001F0ABFAEA692B6ABFF380
:103C40005F8F0021116083F31088002800D126E1E6
:103C50006378082BE2D85A469B00D3589F46636886
:103C6000002BDBD0A0689847D8E77F222179AE4BA4
:103C70000A405500C8095B191B181800012730308D
:103C8000C578BD43C570C5780337BD43C570002AEC
:103C900000D10BE1A54ADB7C002A06D0A44A1278A9
:103CA000934200D291E19B1ADBB2002B00D0F6E0E8
:103CB000A04D62792078A368A847AFE701229A4F08
:103CC00001213B78042013433B703323FA5C8A4381
:103CD000FA54FA5C8243FA540133FA5C8A43FA5488
:103CE000FA5C8243FA54237800209A4600F066FE7C
:103CF000602223791A40602A0DD0402A00D1F2E0D8
:103D0000DB06DB0E012B00D16AE1022B00D121E1A1
:103D1000002B00D1F6E020780021FFF7D1FC8021B4
:103D20002078FFF7CDFC79E77F4B1B78DB0700D4C9
:103D300074E7814B002B00D170E700E000BF6DE716
:103D4000794B1A78D20700D468E77C4A002A00D160
:103D500064E718780007C00F00E000BF5EE7744D0D
:103D6000724A00272B78002A00D1B6E0744A9046A8
:103D70009F4208D39F4200D0B2E00137FFB29F427A
:103D800000D94BE7F6D2414609687A008C46D21931
:103D9000D20062445269002AEFD020789047013760
:103DA0002B78FFB29F42E3D938E72378604D5F4A12
:103DB000984600272B78002A00D186E0614A914678
:103DC0005F4A92462A0045469046BB425ED800D0E4
:103DD00078E04B4628009847434601371B78FFB2EE
:103DE000BB42F2D2504D532200212800FEF72AFE9A
:103DF0001022FF21E81CFEF725FE28002022FF21CB
:103E00001330FEF71FFE00F0CFFD4F4B002B00D10B
:103E100004E700E000BF01E72378454D434A984698
:103E200000272B78002A47D0464A9146444A9246BA
:103E30002A00454690469F421FD343D14B46280057
:103E40009847434601371B78FFB2BB42F3D2364D49
:103E5000532200212800FEF7F5FD1022FF21E81C67
:103E6000FEF7F0FD28002022FF211330FEF7EAFDC7
:103E700000F09AFD2379AB70D0E6524612687B00C1
:103E80009446DB19DB0063445B68D8E7524612684E
:103E90007B009446DB19DB0063445B689AE70BB058
:103EA000F0BCBB46B246A946A046F0BD6279207878
:103EB000A36800F097FDB1E6404600F00DFF2B78B7
:103EC000002BC4D000235B68FFDE404600F004FFF7
:103ED0002B78002B00D185E7F4E7002B00D19DE67D
:103EE00000235B69FFDE1948002800D113E700F0CA
:103EF00065FD0021504608AA00E000BF002800D060
:103F00008CE608E7202A00D19FE0002A00D002E7D3
:103F10006379092B00D9FEE60D4A9B00D3589F46D2
:103F2000205C0010180B0020C00A0020312E001069
:103F300002120020CD4E0010000000000000000022
:103F400088070020D94C001000000000000000008D
:103F5000445C00107023217A0B4200D0DBE60F3363
:103F60000B405B00F818CD090093C14B4019C07C91
:103F7000002B06D0BF4B1B78984200D288E0C01AB5
:103F8000C0B200287ED1002A00D015E1BA4B0193BF
:103F9000637998460223424699469A43012A00D102
:103FA0000EE14346002B00D0B5E6009B06AAFB18A5
:103FB0005D193035EB7802329B07DB0F13805046DA
:103FC000022308A900F092FC28E65A00D318AB4A55
:103FD000DB001268D318002B00D160E71D6968E68A
:103FE000237A0F2B00D996E6A14AFB18DB78002A2A
:103FF00005D0A04A1278934264D39B1ADBB2002BFF
:1040000000D088E69E489C4D00F0D8FC0021504628
:10401000EB6808AA9847002800D0FFE56022150049
:1040200023791D401A4200D075E663790A3B012BC3
:1040300000D970E600F0C2FC63790A2B00D1EEE0F3
:10404000504608A900F03AFCE8E5237A0F2B00D986
:1040500061E6874AFB18DB78002A06D0854A127889
:10406000934200D2D0E09B1ADBB2002B00D052E684
:104070008348814D00F0A2FC00215046EB6808AA5D
:1040800098473BE7002A00D045E6002301937FE7ED
:1040900043009C46794B60441B68C0009C4603006B
:1040A00063440193002A00D172E7002B00D132E66D
:1040B000D86800F083FC019B00215046DB6808AA09
:1040C00098471BE76D4A5D00EB181568DB00ED189B
:1040D000002D00D11FE6E86896E7E388012B00D0A9
:1040E00019E608223B785046934308A93B7000F03C
:1040F000E5FB93E50220397806AB9A1C8B0689080C
:10410000DB0F01400B4359E7A37901931A007B7839
:104110009A4207D07B78002B00D01EE1019B002B38
:1041200000D0B3E0019B504608A97B7000F0C6FBAD
:1041300074E57B7806AA023213705046012308A961
:1041400000F0D4FB6AE5E088030AC0B20F2B00D967
:10415000E1E54C499A008A58974608A800F034FCDB
:104160005046A179FFF702F902223B7813433B70D6
:1041700054E5E388012B00D0CDE508223B7850467A
:10418000134308A93B7000F099FB47E5022B00D1CF
:1041900094E13D4B002B00D1BDE500E000BF0200E3
:1041A000002A00D1B7E5D37891781B020B43504623
:1041B00008A900F09BFBA1E62F4B3148019378E75B
:1041C000E288002A09D14346012B3DD0009BFB1811
:1041D0005D193035EB789B072AD5019D002D00D164
:1041E0001CE5EB681800009300F0E8FBEB68002189
:1041F00008AA50469847002000F0E0FB3423FB5CFF
:10420000DB0700D50AE51BE71C4A5D00EB181568C3
:10421000DB00ED18002D00D17DE5E8682AE706AB4C
:104220009A1C5046012308A9157000F05FFBF5E4C5
:104230005046FFF745FA0222EB7813430122EB7058
:10424000EB781343EB70C8E7009BFB185D19303522
:10425000EB789B07C1D55046FFF74CFA4A46EB78FE
:1042600093434246EB70EB789343EB70B5E7C0465F
:10427000312E001002120020AC5C001088070020D4
:10428000E94D00106C5C001000000000581EC0B228
:10429000FEF71CFF002800D13DE543780493022B74
:1042A00000D038E50121C3799A115B110A400B4017
:1042B00052011B0113433A782F318A4313433B7059
:1042C00009239946C37882781B021343C31881449B
:1042D0000393039B4B4500D8E9E04B4601225B78F2
:1042E00000920B2B07D14B46DB7800934B461B7893
:1042F00099444B465B78042B00D00CE54A46039B5F
:1043000000259B1A9BB202936E4A6F4B1B78002AC2
:1043100016D162E0AB4271D16C4A6D4B9046494672
:104320005046029A98478446082802D9029A824247
:1043300069D2654B01351B78EDB2AB4200D2EAE49D
:10434000AB42E7D9634A6B0012685B199046DB0009
:104350009844434605929B68E1E75046FFF740F9D1
:10436000BB78594D574A009300212B78002A2DD055
:10437000584A90462A000D0091469D421DD300D018
:10438000A0E5554B504698474B4601351B78EDB29A
:10439000AB42F2D2532200213800FEF753FB102229
:1043A000FF21F81CFEF74EFB38002022FF211330BE
:1043B000FEF748FB009BBB70B0E6424612686B00FC
:1043C00094465B19DB0063445B68DBE7504600F012
:1043D00083FC2B78002BDDD074E5029B49461A0044
:1043E0005046984600F08EFC8446082801D9404586
:1043F00007D9354B1B78002B00D18CE400239B6838
:10440000FFDE324B9846009B012B48D0009B002BCF
:1044100010D04B469978002305E0D5700133009AFF
:10442000DBB2934206D2CA18D2B2BA18D078FF28AB
:10443000F3D070E43800E0462B0049466246133062
:1044400000F02EFE204BC1441B78AB4200D340E766
:1044500061E4224B002B00D15DE400E000BF0200CC
:10446000A1E6FEF72FFE1223020008A9504600F035
:104470003DFA43E51A4B002B00D14CE400E000BFAD
:10448000021E00D147E45046137808A900F02EFA26
:1044900034E52189FEF71EFE021EF4D13BE44246BC
:1044A0000B4B92689A42B4D1049B0093B1E70D4B39
:1044B000002B00D136E600E000BF33E6FEF706FE33
:1044C00002006DE6312E001002120020AC5C0010DC
:1044D000054D001088070020D94C00100000000096
:1044E000000000000000000030B587B005000C009F
:1044F0000C2200216846FEF7A5FA6B461D705C7021
:10450000042C4FD009D8022C34D0032C19D13C4BA9
:104510001A78520758D407B030BD052C11D1384B4A
:104520001A78D207F7D504211A788A431A70354BC6
:104530001C68E269EFF3108172B61368002B09D191
:10454000FBE7304B1C68E269EFF3108172B6136829
:10455000002BFCD0BFF35F8F21626946200000F082
:10456000E5FEE269236ABFF35F8F0021116083F3E8
:104570001088D0E70121224B1A788A431A701A78E2
:104580000331A2431A7000225A701A788A431A70B3
:104590001C4B1C68E269EFF3108172B61368002BA4
:1045A000D8D1FBE7164B1A78D207B4D504211A7874
:1045B0000A431A70134B1C68E269EFF3108172B65C
:1045C0001368002BC6D1FBE704211A7803A88A439D
:1045D0001A7000210C22FEF735FA6B466A461D73ED
:1045E00005235373074B1C68E269EFF3108172B621
:1045F0001368002BFCD0BFF35F8F216203A9ADE7E6
:10460000C00A0020180B002070B584B001AC060071
:104610000D000C2200212000FEF714FA0123637024
:104620000D4B25711D682670EA69EFF3108372B691
:1046300011680029FCD0BFF35F8F2B622100280096
:1046400000F074FEEA692B6ABFF35F8F00211160EE
:1046500083F3108804B070BD180B0020002330B520
:1046600085B001AD6B8028700633082202A86B70FC
:10467000FEF7EEF90C4B1C68E269EFF3108372B69B
:1046800011680029FCD0BFF35F8F2362290020004E
:1046900000F04CFEE269236ABFF35F8F00211160D6
:1046A00083F3108805B030BD180B0020F0B5C64666
:1046B000804600B584B001AC0F001600002108222E
:1046C00020001D00FEF7BEF94346237007236370E8
:1046D0000F4B65711D682771A660EA69EFF31083BF
:1046E00072B611680029FCD0BFF35F8F2B622100E6
:1046F000280000F01BFEEA692B6ABFF35F8F0021E0
:10470000116083F3108804B080BCB846F0BDC04689
:10471000180B0020F0B54646D6464F468046C0B539
:104720000C0015001E00002A2ED070239946184B4D
:1047300000279A466378052B0FD1E1788907890F06
:10474000B1420AD14A46A3781A4206D15346200004
:10475000997800F069FC002805D10020E0BCBA4639
:10476000B146A846F0BD21004046FEF7C1FE002834
:10477000F3D0A378DA09012A08D0089A13702378B5
:104780000137E418AF42D5DB0120E7E7099AF5E7E6
:10479000C00A0020702270B58B7805000C001A4208
:1047A00001D0002070BD064B2000997800F03CFC41
:1047B0000028F6D021002800FEF79AFEF2E7C04656
:1047C000C00A002070B57F240C406300144CC90956
:1047D000E41864183034E378DB07DD0F002B18D1C0
:1047E000E3785B0701D5280070BD01210D4E4942D9
:1047F000306801F0D9F8E378DB07DD0F002B0AD130
:10480000E3785B0708D40422E37801251343E370BF
:1048100002E00025E7E70025306801F0ADF8E2E7A7
:10482000C00A0020140B002070B50C0001210F4DB0
:104830004942286801F0B8F87F2121404B000C491B
:10484000E409C91809193031CB780024DB0708D4F2
:10485000CB785B07DC0F002B03DA0422CB78934381
:10486000CB70286801F088F8200070BD140B002080
:10487000C00A002070B57F250F4C0D406D006419F3
:104880000600C80924183034E5780020ED0700D56B
:1048900070BD0125E0782843E0703000FEF7FEFE91
:1048A0000028F5D10122E3789343E370E3780332E3
:1048B0009343E370ECE7C046C00A002070B50A4E8F
:1048C0000500300008220C00FEF7C2F800237F210B
:1048D000F3602278B36091425B412800D901002245
:1048E0000023FFF7C7FF70BD640A0020F8B5CE466D
:1048F000474691462A4E80B50822070030000D0039
:104900009846FEF7A5F84B46B3600023F381EC7997
:10491000A97924020C43231C444500D943469AB28A
:104920009046B381002C13D0002A1FD04B46002B99
:1049300034D0131C402A1FD89BB2984633787F2B63
:1049400020D80021174A43463800FFF793FF09E0BB
:104950007F222B7838009A42644100230022E10133
:10496000FFF788FFC0BCB946B046F8BD33787F2B4F
:1049700011D980210022E6E740239BB29846337884
:104980007F2BDED9074C424649462000FEF760F8EF
:1049900080212200D7E700210022D4E70020E1E7B0
:1049A000640A0020800A002010B514220021024869
:1049B000FEF748F810BDC046640A0020014B18619C
:1049C0007047C046640A002010B5054C010008225B
:1049D0002000FEF73DF80023A360E36010BDC04651
:1049E000640A0020F8B53B4C1D0023780600DA0964
:1049F000C9098A4213D00020002D00D0F8BD364BE3
:104A0000002B03D021003000FEF764FD2369002B4A
:104A100044D022000221300098470120EEE7A06830
:104A20007F2B06D8002837D02A002C49FEF710F833
:104A3000A068E289E388521992B24019E281A0602D
:104A4000934214D03F2D12D9A589A91A0F1C89B2FF
:104A500040292FD82378BFB27F2B2DD80021AA421E
:104A600036D01E4A3B003000FFF704FFC6E723693B
:104A7000002B05D0220001213000984700280FD0DC
:104A80007F220021237830009A42494100230022EE
:104A9000C901FFF7EFFEB1E70020AFE70120ADE766
:104AA00000213000FEF70CFE30008021FEF708FEEA
:104AB0000120A3E74027CDE78021AA4208D0074C78
:104AC00001003A002000FDF7C3FF80212200C9E762
:104AD0000022C7E7640A0020D5340010800A0020B5
:104AE00010B50400FFF708F8002801D1002010BD20
:104AF000FFF70AF80028F9D1B620800044430348A4
:104B00000019037901201840F1E7C0468C07002006
:104B1000B6239B00584310B5024B1030C01800F06C
:104B200011FB10BD8C070020F0B5B625AD00454344
:104B30002C00C646174F1034E41900B5200092B27D
:104B400000F074FB0600200000F014FB3F2803D89F
:104B5000300080BCB846F0BD7B190020D97898465B
:104B6000FFF730FE0028F3D0200000F003FB3F28C1
:104B70000AD996239B00EA184346D219D978002017
:104B80004023FFF777FEE3E743460020D978FFF79D
:104B90004BFEDDE78C070020F8B50400FEF7ACFF04
:104BA000002801D10020F8BDFEF7AEFF0028F9D1A2
:104BB000B620800044432500144E2C35AD19280042
:104BC00000F0C0FA0028EDD037190020B978FFF7BF
:104BD000F9FD0028E6D0A6239B009C466444A41956
:104BE00021002800402200F021FBB978051E08D0E2
:104BF000030022000020FFF73DFE0028D2D028004D
:104C0000D1E70020FFF710FECCE7C0468C0700205C
:104C100070B5B624A4004443094B2C34E4180500B5
:104C200092B2200000F0C0FB0600200000F08AFADB
:104C30003F2801D8300070BD2800FFF7ADFFF9E72D
:104C40008C070020B6239B00584310B5024B2C3034
:104C5000C01800F08FFA10BD8C070020B622F0B506
:104C60001B4C83B0002120009200FDF7EBFEFF23D8
:104C70006371184B80260025E3800127082321005B
:104C80002000760023733200278148310095073BCE
:104C9000103000F01BFA2100200049313200FF31B2
:104CA000012300972C3000F011FA92239B00E618A4
:104CB0003000FCF789FF94239B00A662E6183000C1
:104CC0006562FCF781FF2664656403B0F0BDC046F1
:104CD0008C07002000C2FFFF10B5094C05220021FF
:104CE0002000FDF7AFFE20002C34103000F0DAFB7E
:104CF000200000F0D7FB0121200000F0F9FB10BDDF
:104D00008C070020F0B54B79060083B0022B02D14E
:104D10008B79022B03D00025280003B0F0BD2F4F64
:104D2000BB78002BF7D18B7809253B700C780C19D8
:104D30006378242B0BD1082A02D80FE0AA420DD3A6
:104D40002378E418ED186378ADB2242BF6D0052B48
:104D500020D0042B02D163790A2B2ED0204C2000C6
:104D600000F008FA3F28D7D92600103E0020F1783D
:104D7000FFF728FD0028CFD0200000F0FBF93F28E6
:104D800016D992239B00E218F17840230020FFF708
:104D900071FDC1E721003000FFF7FCFC0028BAD00C
:104DA000A3787B702378ED18E4186378ADB2D0E770
:104DB000F1780020FFF738FDAEE70A4B2778019322
:104DC00001330093022202233000E119FFF7A2FC15
:104DD0000028A0D00E35ED19ADB2BFE78C0700203A
:104DE0009C0700208E070020F8B56023140012787D
:104DF000050013400020202B12D12F4A6379277918
:104E000016781B023B439E420AD16378222B27D09F
:104E100007D8202B17D0212B02D100293DD001200B
:104E2000F8BD232BFCD100293FD00229F7D1234B19
:104E3000002BF4D0E178A37809020020194300E0A8
:104E400000BF0120ECE7002927D00229E7D11C4B45
:104E5000002BE4D00020911DFDF7F0FF0120DFE7DB
:104E6000002922D00229DAD101252E00A378E47886
:104E7000013924021C43147126402C321000714069
:104E800000F036FB0F4B002BC9D062080020310028
:104E90002A4000E000BF0120C2E7072321002800CC
:104EA000094AFFF723FD0120BAE721002800FFF798
:104EB00005FD0120B4E7C0468C070020000000007B
:104EC0003D2E00100000000092070020F8B5574664
:104ED0004E464546DE46E0B5494F8046FA780C001E
:104EE0001E008A4264D19AB296239B00FD181023BB
:104EF0009B46BB442900584600F056FA414BD94620
:104F0000002B18D07B79D946FF2B14D0002E12D05D
:104F1000AA19924603E0013555450CD07B792A78D1
:104F20009A42F8D1484600F01DF90028F3D179796A
:104F300000E000BFEFE7344B002B04D0484600F000
:104F400011F9002852D0484600F014F93F2834D80F
:104F50004A46103A9378A34207D001242000F0BCBF
:104F6000BB46B246A946A046F8BD284B002B02D04E
:104F7000002000E000BF0020FFF70EFE0028ECD16B
:104F8000234D280000F0DEF80028E6D1002EE4D002
:104F9000B306E2D12C3D4046A978FFF713FC041E6E
:104FA000DBD0002300224046A978FFF763FCD5E759
:104FB000BB788B42D9D00024D0E74D46103D00206D
:104FC000E978FFF7FFFB002801D1AB78C3E748463B
:104FD00000F0D0F83F280CD9922292004023002004
:104FE000E9784A44FFF746FCAB78B4E700E000BF3D
:104FF000A9E70020E978FFF717FCAB78ABE7C046DC
:105000008C070020000000000000000000000000ED
:10501000B807002010B50020FEF784FD10BDC04683
:1050200010B5FEF779FD10BD072210B5447903795C
:10503000224012021A43C3789B079B0F022B05D014
:10504000032B15D00020012B08D010BD02291CD045
:105050000020402393424041C0B2F6E702394B4260
:1050600059410D4B9C46614491424041C0B2ECE72E
:1050700002394B425941F023002049429B0019401C
:10508000403191424041C0B2DFE7044B9C4662444C
:1050900053425A41D0B2D8E7FF03000000FEFFFFA1
:1050A000F0B5002A11D000247F274D78052D06D1B8
:1050B0003D008E7835406D00F6094519AB550D78E9
:1050C0006419A4B24919A242EFD8F0BDF0B5C646A2
:1050D00000B5150006AA1E001378802204000F00F8
:1050E0009846120295422AD84069002803D001212F
:1050F000494200F059FCA069002803D0012149422F
:1051000000F052FC4346A5806D00ADB223726B1EC9
:10511000A381002360696D42E3812760E680658199
:105120002382002801D000F027FCA0690124002878
:1051300001D000F021FC200080BCB846F0BD002466
:10514000F9E7C046C189028A8B1A9BB2914202D20A
:1051500042899B1A9BB28288101C9A4200D9181C63
:1051600080B270470300C0891B8AC01A434258416D
:10517000C0B2704710B5C489018A8388621A92B29E
:105180008C4202D24089121A92B2981A80B210BD93
:1051900070B5040080690E00002803D00121494247
:1051A00000F002FCE189228A88B28D1A93B2ADB276
:1051B000914202D26289AD1AADB2A288AA4207D248
:1051C000904225D261895118411A89B21500218275
:1051D000002D02D122E09B1A9BB29A42FBD9E288B1
:1051E000216853433000C918FDF732FC228A01259B
:1051F000531C9BB29A4214D9002362899B189BB21C
:10520000A0692382002801D000F0B6FB280070BD01
:10521000811AA58989B28D42D8D2D3E70025238A85
:105220009BB2A2899A42EBD2E7E7C046F0B54F465F
:105230004646D6460500806988469146C0B5002896
:1052400003D00121494200F0AFFBEA892B8A91B2D9
:10525000D61A9CB2B6B29A4202D26B89F61AB6B28C
:10526000AF88B74209D2B94254D26B89FB18CB1A26
:105270009BB23E002B822C8AA4B2002E50D04B460B
:10528000B14545D89EB2A74203D8E41BA4B2A742B9
:10529000FBD9EB88381B190099462B6861439C4663
:1052A00080B26144864225D94B46584383B21A00E6
:1052B00040469A46FDF7CCFB4B464046F71BE419A7
:1052C0005C432968A2B25044FDF7C2FB2A8A9319B5
:1052D0009BB29A4218D96A899B189BB2A8692B8203
:1052E000002801D000F048FB3000E0BCBA46B146CF
:1052F000A846F0BD4A4640467243FDF7A9FB2A8AFC
:1053000093199BB29A42E6D8AA899A42E6D2E2E77A
:10531000331CB7E7CB1BAA899BB29A42A9D2A4E758
:105320002B8AAA899BB29A42D8D2D4E7F8B5040056
:1053300040690E00002803D00121494200F034FBEF
:10534000E289218A95B2531A9BB2914202D96289AD
:105350009B1A9BB2A2889A4221D02B00954203D37C
:105360009B1A9BB29A42FBD9E28821685343C81822
:105370003100FDF76DFB6B1C9BB29D420BD962891E
:105380009B189BB260690127E381002801D000F0DF
:10539000F3FA3800F8BDA2899A42F3D2EFE7277AF0
:1053A000002FDAD1F5E7C046F8B545464E46DE4651
:1053B00057468846E0B50500161E58D040690028BB
:1053C00003D00121494200F0EFFAEA88EF899246C2
:1053D000298A2A7AAB88BFB289B2002A38D17A1AD0
:1053E00092B28F4202D26989521A92B29A1A111C51
:1053F00092B2B2424FD88EB2F21A92B291463C00AB
:105400009F4203D3E41AA4B29C42FBD250462A68BE
:10541000604394461B1B9BB2524660449E4228D870
:1054200041467243FDF714FBF3199BB29F421AD811
:10543000AA899A4217D36869EB81002801D000F04D
:105440009BFA3000F0BCBB46B246A946A046F8BD68
:105450009E4222D35246F61A56430022B0440F0011
:105460001E009146CBE76A899B189BB2E3E70026B2
:10547000E7E753439BB21A0041469B46FDF7E8FA23
:105480002200534641464A445A43286892B259443E
:10549000FDF7DEFAC8E7311CADE7F21A92B2914689
:1054A000ADE7C04610B504004069002803D00121D3
:1054B000494200F079FAA069002803D0012149424D
:1054C00000F072FA0023E3812382A38860695B0005
:1054D0009BB25A1E5B42A2816381002801D000F07A
:1054E0004BFAA069002801D000F046FA012010BD57
:1054F00070B5040040690D00002803D00121494225
:1055000000F052FAA069002803D00121494200F0BE
:105510004BFA60692572002801D000F02DFAA069CD
:10552000002801D000F028FA012070BD10B5024813
:1055300000F0D8F810BDC046C411002030B54B1E95
:10554000012900D1A7E0664A11780D092C003034FA
:105550009F2900D9A2E00470012B00D1BEE00F21E9
:10556000147821400C003034092900D998E04470A7
:10557000022B00D1B2E054782509290030319F2C4C
:1055800000D990E08170032B00D1A7E00F212140CA
:105590000C003034092900D987E0C470042B00D1F5
:1055A0009CE094782509290030319F2C00D97FE0B8
:1055B0000171052B00D191E00F2121400C00303406
:1055C000092900D976E04471062B00D186E0D47811
:1055D0002509290030319F2C00D96EE08171072BFD
:1055E00000D17BE00F2121400C003034092966D81E
:1055F000C471082B00D171E01479250929003031DC
:105600009F2C5FD80172092B68D00F2121400C001C
:105610003034092958D844720A2B5FD054792509AF
:10562000290030319F2C52D881720B2B56D00F217C
:1056300021400C00303409294BD8C4720C2B4DD0BA
:1056400094792509290030319F2C00D90731017345
:105650000D2B43D00F2121400C003034092901D9F2
:1056600037310C0044730E2B38D0D1790C0922004D
:1056700030329F2900D9073282730F2B2ED00F2290
:105680000A4011003731092A01D830321100C173A4
:10569000102B23D010300023037030BD07345AE79D
:1056A00037310C0063E707316CE737310C0074E7E2
:1056B00007317DE737310C0085E707318EE7373159
:1056C0000C0095E707319DE737310C00A3E7073160
:1056D000AAE737310C00C4720C2BB1D1C018DAE73D
:1056E000C411002030B5002589B004000922002132
:1056F00001A80095FDF7A6F90922002105A8049547
:10570000FDF7A0F94B236A466846137004A90D22E1
:1057100000F02AF91521082220006944FDF798F9C4
:1057200009B030BDF0B5D6464F4646468846C0B5AE
:1057300005240600FAF7A2FF43461F791C57284BA1
:105740008146F01843425841264B9A4683009C46B6
:1057500053466246985801222023BA40DB1B013A87
:10576000002C32DB9C422DDCA2401500104229D1D6
:10577000002F1AD043465A78197812021143424634
:105780009B78D2781B040B4312061A4390460022E2
:1057900041465300C95A4B0B00D109191319123352
:1057A0009B00013299519742F2D853466246054315
:1057B0009D504846FAF76EFF2000E0BCBA46B1465D
:1057C000A846F0BD0848FCF7A3FA002B02DAF9E777
:1057D000013BF7D315009D401C000542F8D1C7E7F7
:1057E0000000D0AFDC0B0020C45C0010F0B54E46CA
:1057F0004546DE4657468A464900E0B50D008046DC
:105800005544ED0045448946290009AC2678DC3131
:10581000741EA64108687442844614481F268346B5
:1058200026405E44052B0CD9A0201F274005D83503
:10583000540104430532053B0C603A402E60052BB1
:10584000F6D849465144C900414452019B061343CE
:105850000A000800DC3213606346D830066013602B
:10586000F0BCBB46B246A946A046F0BD80E00000B1
:10587000F0B501258D400468AC434D0004606C1800
:10588000E40004192600C836002B2AD01F68DC3437
:1058900037605F6877609F68DB68B76023606D186A
:1058A000EB001D008024D035451964012C43802570
:1058B0002D0625602560114C0D1D8C40846001244F
:1058C0002700AF403D0008318C401F2106680A4088
:1058D0003543056005682C430460C018D830026069
:1058E000F0BD80277F023760F8277F027760C027EE
:1058F000DC343F03B7602360D1E7C04601010101FA
:1059000010B583070CD00300032102E001330B42E2
:1059100007D01A78002AF9D1181A10BC02BC08471F
:10592000030019680C4A0D4C8A188A4322420FD191
:105930005968094A8A188A430433224208D15968AF
:10594000054A8A188A4304332242F1D000E0013329
:105950001A78002AFBD1DFE7FFFEFEFE8080808000
:10596000F8B5C0460000000001B40248844601BCFE
:10597000604700BF8D02002001B40248844601BC8C
:10598000604700BFED01002001B40248844601BC1D
:10599000604700BF5103002001B40248844601BCA7
:1059A000604700BF0901002001B40248844601BCE1
:1059B000604700BF4D01002001B40248844601BC8D
:0859C000604700BFC100002098
:1059C800D059001004FF000080E001402080010051
:1059D800E059001004FF000021622311001442A4C2
:1059E8004E6F207370696E6C6F636B7320617265A4
:1059F80020617661696C61626C6500004E6F20758C
:105A08007365722049525173206172652061766115
:105A1800696C61626C650000FFFFFFFFFFFFFF7F9D
:105A2800486172647761726520616C61726D2025CE
:105A38006420616C726561647920636C61696D656D
:105A4800640000000A2A2A2A2050414E4943202A8D
:105A58002A2A0A000A0000004861726420617373F0
:105A68006572740052656C6561736500626F6F746E
:105A7800325F77323571303830000000312E342EE5
:105A8800300000007069636F0000000070696F7378
:105A9800636F7065000000004E6F7620323320324D
:105AA8003032320006005250BBFF3CB68C5A001010
:105AB80006005250E182887F745A00100600525046
:105AC800D3F075426C5A00100D0A0000912D001099
